:020000040800F2
:100000000028002095160008E5160008E5160008EF
:10001000E5160008E5160008E516000800000000D7
:10002000000000000000000000000000E5160008CD
:10003000E516000800000000E5160008E5160008B7
:10004000E5160008E5160008E5160008E5160008A4
:10005000E5160008E5160008E5160008E516000894
:10006000E5160008E5160008E5160008E516000884
:10007000E5160008E5160008E5160008E516000874
:10008000E5160008E5160008E5160008E516000864
:10009000E5160008E5160008E5160008E516000854
:1000A000E5160008E5160008E5160008E516000844
:1000B000E5160008E5160008E5160008E516000834
:1000C000E5160008E5160008E5160008E516000824
:1000D000E5160008CD150008E1150008F515000823
:1000E000E5160008E516000800000000E516000807
:1000F000E5160008E5160008E5160008E5160008F4
:10010000E5160008E5160008E5160008E5160008E3
:10011000E5160008E5160008E5160008E5160008D3
:10012000E5160008E5160008E5160008E5160008C3
:1001300010B5054C237833B9044B13B10448AFF321
:1001400000800123237010BD9C00002000000000EF
:100150003C20000808B5034B1BB103490348AFF32B
:10016000008008BD00000000A00000203C20000826
:1001700080B500AF0A4B9B69094A43F004039361C1
:10018000074B9B69064A43F008039361044B9B6944
:10019000034A43F00103936100F0BEFE00BF80BD3F
:1001A0000010024080B500AF084800F05EFC08482F
:1001B00000F05BFC00F0F0FA00F058FA00F004FEEA
:1001C00000F08CFA00F0D2FA00BF80BD18000020C9
:1001D0000400002080B582B000AF002200213B481F
:1001E00000F0B8FD3A49394800F06FFD4FF4FA705D
:1001F00000F0D2FE354800F08CFD0022002133488B
:1002000000F0A8FD3349314800F05FFD4FF49670CF
:1002100000F0C2FE00237B6025E07B68DBB2013387
:10022000DBB21A460021294800F094FD7B680133B7
:100230001A462949294801F057FA2849234800F06D
:1002400044FD00F00FFB264A7B6813441B78002B0B
:10025000F7D0234BDBB2012219461C4800F08CFC7E
:100260007B6801337B607B68022BD6DD174800F08A
:1002700050FD00220021154800F06CFD194913487B
:1002800000F023FD00233B6018E03B68DBB2013344
:10029000DBB21A4600210D4800F05CFD104A3B68B5
:1002A00013441B783A6810490C4801F01DFA0B49B9
:1002B000064800F00AFD3B6801333B603B68022BB7
:1002C000E3DD00BF00BF0837BD4680BD040000204D
:1002D000542000085C2000086C200008BC000020AE
:1002E000B80000207C2000088C20000880B582B077
:1002F00000AF0123FB7100F075F900220021534883
:1003000000F028FD5249514800F0DFFC4FF4FA702C
:1003100000F042FE4D4800F0FCFC002200214B485A
:1003200000F018FD4B49494800F0CFFC00224A4933
:100330004A4801F019F900233B6012E0464A3B6845
:1003400032F8132046493B680B441B789BB29A4213
:1003500002D10123FB7101E00023FB713B680133F3
:100360003B603B68022BE9DD3E4B1B78002B59D0EC
:10037000FB79012B3ED101220021344800F0EAFC38
:100380003949324800F0A1FC4FF4967000F004FEA9
:10039000344B1B78013BDAB2324B1A70314B1B786D
:1003A0001A463249324801F09FF94FF4FA7000F0D2
:1003B000F3FD02220021254800F0CCFC2C49234803
:1003C00000F083FC00F020FD4FF47A7000F0E4FDB3
:1003D000012000F099F9C82000F0DEFD00F020FDBA
:1003E00000BF00F063F90346002BFAD1022000F0B1
:1003F0008BF920E0FB79002B1DD10122002113484D
:1004000000F0A8FC00F018FD1A49104800F05DFC4F
:100410004FF4FA6000F0C0FD00F01AFD0B4800F048
:1004200078FC08E001220021084800F093FC124902
:10043000064800F04AFC4FF4FA6000F0ADFD0348B6
:1004400000F067FC00BF0837BD4680BD18000020E3
:100450005420000898200008D000002000380140F7
:10046000B800002000000020A8200008B8200008E4
:10047000F8000020C8200008D820000880B582B00D
:1004800000AF0123FB7100F0CFF8002200214A48A1
:1004900000F060FC4949484800F017FC4FF4FA703E
:1004A00000F07AFD444800F034FC0022002142486C
:1004B00000F050FC4249404800F007FC002241494E
:1004C000414801F051F800233B6012E03D4A3B688F
:1004D00032F813203D493B680B441B789BB29A428B
:1004E00002D10123FB7101E00023FB713B68013362
:1004F0003B603B68022BE9DD2F4800F00AFCFB79EA
:10050000012B3ED1012200212B4800F023FC304971
:10051000294800F0DAFB4FF4967000F03DFD2D4BBA
:100520001B780133DAB22B4B1A702A4B1B781A4610
:1005300029492A4801F0D8F84FF4FA7000F02CFD50
:10054000022200211C4800F005FC24491A4800F052
:10055000BCFB00F059FC4FF4FA6000F01DFD0120D7
:1005600000F0D2F8C82000F017FD00F059FC00BFE1
:1005700000F09CF80346002BFAD1022000F0C4F8EA
:1005800016E0FB79002B13D1012200210A4800F06C
:10059000E1FB00F051FC1249074800F096FB4FF4D4
:1005A000FA6000F0F9FC00F053FC034800F0B1FBE6
:1005B00000BF0837BD4680BD180000205420000849
:1005C00098200008D000002000380140B80000202A
:1005D000A820000800000020B8200008F800002033
:1005E000C820000880B586B000AF0C233B71002303
:1005F0003B744FF41653BB6000233B7300237B73A3
:100600000023BB7300237B610023FB73054800F0CC
:1006100045FF3B1D1946034800F074FE00BF183724
:10062000BD4680BD0038014080B586B000AF0C23C8
:100630003B7100233B744FF41653BB6000233B73A4
:1006400000237B730023BB7300237B610023FB73B8
:10065000054800F023FF3B1D1946034800F052FEF9
:1006600000BF1837BD4680BD0044004080B582B051
:1006700000AF40233B800123BB8004237B803B46AB
:100680001946094800F05AFD02233B800123BB8034
:1006900004237B803B461946034800F04FFD00BF12
:1006A0000837BD4680BD00BF0008014080B582B05C
:1006B00000AF4021084800F0F1FD0346BB71BB7953
:1006C000012B02D10123FB7101E00023FB71FB79B7
:1006D00018460837BD4680BD0008014080B582B08D
:1006E00000AF4FF480733B8004237B800123BB80E9
:1006F0003B461946034800F021FD00BF0837BD46C0
:1007000080BD00BF000C014080B582B000AF034641
:10071000FB71FB79012B0FD101224FF4807112483C
:1007200000F097FD4FF4FA7000F020FC00224FF427
:1007300080710D4800F08DFDFB79022B0FD1012255
:100740004FF48071084800F084FD4FF4BA6000F067
:100750000DFC00224FF48071034800F07AFD00BFC9
:100760000837BD4680BD00BF000C014080B582B097
:1007700000AF4FF400733B8004237B800123BB80D8
:100780003B461946034800F0D9FC00BF0837BD4678
:1007900080BD00BF000C014080B582B000AF0423D3
:1007A0007B800123BB8001233B803B4619462C48BC
:1007B00000F0C4FC04237B800123BB8002233B8028
:1007C0003B461946264800F0B9FC04237B800123F0
:1007D000BB8008233B803B461946214800F0AEFC15
:1007E00004237B800123BB8010233B803B461946BA
:1007F0001B4800F0A3FC04237B800123BB80202343
:100800003B803B461946164800F098FC04237B8049
:100810000123BB8040233B803B461946104800F033
:100820008DFC04237B800123BB8080233B803B46DF
:1008300019460B4800F082FC04237B800123BB8017
:100840004FF480733B803B461946054800F076FC28
:10085000FF21034800F014FD00BF0837BD4680BDEE
:10086000000C014080B582B000AF00237B60B4E093
:100870005E4B1B689BB2012219465D4800F0E9FC03
:100880005A4B5B689BB201221946594800F0E1FCC3
:10089000564B9B689BB201221946554800F0D9FC83
:1008A000524BDB689BB201221946514800F0D1FC43
:1008B0004E4A7B6852F823309BB2002219464C48BE
:1008C00000F0C7FC00233B6080E04A4A3B6852F8D6
:1008D00023309BB21946464800F0E0FC0346002B4B
:1008E00071D100BF434A3B6852F823309BB219468E
:1008F0003F4800F0D3FC0346002BF3D07B68032B6A
:1009000061D801A252F823F0190900084109000832
:1009100069090008910900083B68002B01D13723C1
:1009200060E03B68012B01D134235BE03B68022B84
:1009300001D1312356E03B68032B3DD1212351E007
:100940003B68002B01D138234CE03B68012B01D1DF
:10095000352347E03B68022B01D1322342E03B685C
:10096000032B2BD130233DE03B68002B01D13923F1
:1009700038E03B68012B01D1362333E03B68022B82
:1009800001D133232EE03B68032B19D13D2329E00D
:100990003B68002B01D12F2324E03B68012B01D1C0
:1009A0002A231FE03B68022B01D12D231AE03B686C
:1009B000032B07D12B2315E000BF04E000BF02E0AA
:1009C00000BF00E000BF3B6801333B603B68032B86
:1009D0007FF77BAF7B6801337B607B68032B7FF7FE
:1009E00047AF412318460837BD4680BD3C00002074
:1009F000000C01402C00002080B485B000AF78606E
:100A00000023BB600023FB600AE0BB680133BB60CE
:100A1000BB6840F2DB529342F7D9FB680133FB60BD
:100A2000FA687B689A42F3DB00BF00BF1437BD460B
:100A300080BC704780B582B000AF78607B68186872
:100A40007B68DB880122194600F003FC0120FFF7D8
:100A5000D3FF7B6818687B68DB880022194600F0AA
:100A6000F8FB00BF0837BD4680BD80B584B000AF3D
:100A700078607B68DB883B8104237B810123BB8119
:100A80007B681B6807F108021146184600F056FB08
:100A90007B689B883B817B681B6807F108021146D5
:100AA000184600F04BFB7B680022DA747B689B7C65
:100AB0000F2B19D80023FB7312E07B689B891A4621
:100AC000FB7B02FA03F39BB23B817B689B6807F1D7
:100AD00008021146184600F031FBFB7B0133FB7323
:100AE000FB7B032BE9D918E00023BB7312E07B6882
:100AF0009B891A46BB7B02FA03F39BB23B817B685E
:100B00009B6807F108021146184600F017FBBB7BF3
:100B10000133BB73BB7B072BE9D900220221786824
:100B200000F02AF87B689B7C2033DBB20022194658
:100B3000786800F021F87B685B7C0833DBB2002228
:100B40001946786800F018F87B681B7C0433DBB228
:100B500000221946786800F00FF8786800F0D9F89C
:100B6000786800F0E6F800228021786800F004F848
:100B700000BF1037BD4680BD80B582B000AF786041
:100B80000B46FB701346BB70786800F0B7F87B68C3
:100B90009B7C0F2B46D87B689868FB781B09DBB2DF
:100BA0009BB27A68928902FB03F399B27B689B89B6
:100BB0001A461201D31A9BB21A4600F086FBBB7884
:100BC000002B08D17B6818687B689B880022194637
:100BD00000F03FFB07E07B6818687B689B88012278
:100BE000194600F036FB7868FFF724FF7B689868A9
:100BF000FB789BB203F00F039BB27A68928902FBE9
:100C000003F399B27B689B891A461201D31A9BB2EF
:100C10001A4600F05AFB7868FFF70CFF0120FFF737
:100C2000EBFE28E07B689868FB789BB27A68928933
:100C300002FB03F399B27B689B891A461202D31A0E
:100C40009BB21A4600F041FBBB78002B08D17B68B1
:100C500018687B689B880022194600F0FAFA07E0C2
:100C60007B6818687B689B880122194600F0F1FABE
:100C70007868FFF7DFFEBB78012B22D17B68DB7C35
:100C80000133DAB27B68DA747B68DB7C102B05D128
:100C900001220021786800F05DF812E07B68DB7CBF
:100CA000202B05D102220021786800F053F808E0DB
:100CB0007B68DB7C302B04D103220021786800F0B4
:100CC00049F800BF0837BD4680BD80B582B000AF8F
:100CD0007860396009E03B681B7801221946786822
:100CE000FFF74AFF3B6801333B603B681B78002BF2
:100CF000F1D100BF00BF0837BD4680BD80B582B0CE
:100D000000AF78600120FFF777FE00BF0837BD46CF
:100D100080BD80B582B000AF786000220121786884
:100D2000FFF72AFF7B680022DA7400BF0837BD4650
:100D300080BD80B582B000AF786000220221786863
:100D4000FFF71AFF7B680022DA7400BF0837BD4640
:100D500080BD000080B584B000AF78600B46FB70AA
:100D60001346BB70BB78032B19D801A252F823F0AD
:100D7000810D0008870D00088F0D0008970D0008F1
:100D8000FB78FB600BE0FB784033FB6007E0FB780F
:100D90001433FB6003E0FB785433FB6000BFBB7887
:100DA0001B01DAB2FB781344DAB27B68DA74FB68B1
:100DB000DBB2803BDBB2002219467868FFF7DCFE2D
:100DC00000BF1037BD4680BD80B582B000AF4FF484
:100DD00000633B800123BB8004237B803B46194694
:100DE000084800F0ABF901233B800123BB800423BA
:100DF0007B803B461946034800F0A0F900BF083746
:100E0000BD4680BD0008014080B500AF01224FF40F
:100E10000061024800F01DFA00BF80BD00080140DB
:100E200080B500AF00224FF40061024800F011FAD3
:100E300000BF80BD0008014080B500AF0122012144
:100E4000024800F006FA00BF80BD00BF0008014064
:100E500080B500AF00220121024800F0FAF900BF7E
:100E600080BD00BF0008014080B400AF084B5B6844
:100E70009B0803F00303002B02D0012B02D003E0F8
:100E8000044B01E0044BFFE71846BD4680BC7047A9
:100E90000010024000127A000024F40080B500AF78
:100EA000FFF7E2FF0246064B5B681B0903F00F03E6
:100EB000044931F8133022FA03F3184680BD00BF0D
:100EC00000100240F020000880B500AFFFF7E6FFF9
:100ED0000246054B5B681B0A03F007030349CB5C22
:100EE00022FA03F3184680BD00100240E8200008F3
:100EF00080B500AFFFF7D2FF0246054B5B68DB0A07
:100F000003F007030349CB5C22FA03F3184680BDC4
:100F100000100240E820000880B400AF0F4B1B68AF
:100F20000E4A43F0010313600D4B07221A600D4B6C
:100F30004CF250321A604FF080431B684FF08042F1
:100F400043F00103136000BF074B1B68002BFBD06D
:100F500000BF00BFBD4680BC704700BF1C100240F0
:100F6000280000402C0000401000004080B483B0F6
:100F700000AF7860074B00221A6000BF054B1A686B
:100F80007B689A42FAD300BF00BF0C37BD4680BCD5
:100F9000704700BF2400004080B584B000AF786087
:100FA0000023FB600023FB6006E04FF47A70FFF73C
:100FB000DDFFFB680133FB60FA687B689A42F4DB73
:100FC00000BF00BF1037BD4680BD000080B483B0B5
:100FD00000AF0346FB80FB88B3F5004F00F0A5800F
:100FE000B3F5004F00F3A380B3F5804F00F09B8072
:100FF000B3F5804F00F39B80B3F5005F00F0918064
:10100000B3F5005F00F39380B3F5805F00F0878055
:10101000B3F5805F00F38B80B3F5006F7DD0B3F53F
:10102000006F00F38480B3F5806F74D0B3F5806FE8
:101030007DDCB3F5007F6CD0B3F5007F77DCB3F5D2
:10104000807F64D0B3F5807F71DC802B5DD0802BF6
:101050006DDC202B48DC002B69DD013B1F2B66D8A3
:1010600001A252F823F000BFEF100008F3100008AF
:101070002F110008F71000082F1100082F11000889
:101080002F110008FB1000082F1100082F11000875
:101090002F1100082F1100082F1100082F11000830
:1010A0002F110008FF1000082F1100082F11000851
:1010B0002F1100082F1100082F1100082F11000810
:1010C0002F1100082F1100082F1100082F11000800
:1010D0002F1100082F1100082F1100082F110008F0
:1010E0002F11000803110008402B0CD01FE0002333
:1010F0001EE004231CE008231AE00C2318E0102350
:1011000016E0142314E0182312E01C2310E000233F
:101110000EE004230CE008230AE00C2308E010236F
:1011200006E0142304E0182302E01C2300E0FF2360
:1011300018460C37BD4680BC704700BF90B585B0DF
:1011400000AF786039600023BB603B681B889BB2AE
:10115000FF2B01D87B6801E07B680433BB603B68F0
:101160001B889BB21846FFF731FF03461A460F2330
:101170009340DA43BB681B681A40BB681A603B683F
:101180005B889BB2042B0ED03B685B889BB2052B1F
:1011900009D03B685B889BB2062B04D03B685B8818
:1011A0009BB2072B10D13B685B889BB2043B9B0032
:1011B0001AB23B689B889BB21BB213431BB29BB213
:1011C00003F00F03FB8131E03B685B889BB2012B8E
:1011D00004D03B685B889BB2002B08D13B685B88DE
:1011E0009BB29B009BB203F00F03FB811EE03B68A8
:1011F0005B889BB29B009BB203F00F03FB813B68B3
:101200005B889BB2022B08D13B681B889AB27B6833
:10121000DB681A437B68DA6008E03B681B889BB296
:10122000DA437B68DB681A407B68DA60FC893B68DC
:101230001B889BB21846FFF7C9FE034604FA03F267
:10124000BB681B681A43BB681A6000BF1437BD46F1
:1012500090BD80B483B000AF78600B467B801346AE
:101260007B707B78012B03D17A887B681A6102E05E
:101270007A887B685A6100BF0C37BD4680BC7047D6
:1012800080B483B000AF78600B46FB70FA787B685F
:10129000DA6000BF0C37BD4680BC704780B485B0B3
:1012A00000AF78600B467B807B689A687B88134030
:1012B000002B02D00123FB7301E00023FB73FB7BB7
:1012C00018461437BD4680BC704780B483B000AF69
:1012D00078600B467B8013463B807B68DB683A88EE
:1012E000D2431A407B68DA607B68DB6879883A8889
:1012F0000A4092B21A437B68DA6000BF0C37BD46E1
:1013000080BC704780B584B000AF786039605B4ABC
:101310003B6813607B685A4A934209D1594B9B69D9
:10132000584A43F480439361574A3B6813601AE07C
:101330007B68564A934209D1524BDB69514A43F4C8
:101340000033D361504A3B6853600CE07B68504ADD
:10135000934208D14B4BDB694A4A43F48023D36163
:10136000494A3B6893607B68DB6843F400527B68C2
:10137000DA607B68DB683A6812781A437B68DA6067
:101380007B68DB683A68527A1A437B68DA607B686C
:10139000DB683A68127A1A437B68DA607B681B69FB
:1013A0003A68927A1A437B681A617B685B693A688B
:1013B000127B1A437B685A617B68314A934203D19E
:1013C000FFF796FDF86002E0FFF77EFDF8603B68EE
:1013D0005B681B01FA68B2FBF3F31901FA68134664
:1013E0009B0013449A001A443B685B689B00B2FB65
:1013F000F3F23B685B681B01F868B0FBF3F3642011
:1014000000FB03F3D31A1B01224AA2FB03235B094F
:1014100003F00F030B43BB607B68BA689A603B68BC
:10142000DB7A002B26D07B68DB683A68D27A1A43D5
:101430007B68DA607B68124A934206D1164B1B68C0
:10144000154A43F02003136014E07B680F4A93426F
:1014500006D1114B1B68104A43F04003136009E0AA
:101460007B680B4A934205D10B4B1B680A4A43F039
:101470008003136000BF1037BD4680BD0C01002003
:1014800000380140001002401001002000440040DC
:10149000004800401F85EB5104E100E080B584B0B6
:1014A00000AF78607B682B4A934218D14FF40073E9
:1014B0003B8106237B810123BB8107F10803194689
:1014C0002548FFF73BFE4FF480633B8101237B817E
:1014D00007F1080319462048FFF730FE36E07B6825
:1014E0001E4A934216D104233B8106237B810123AC
:1014F000BB8107F1080319461748FFF71FFE0823B1
:101500003B8101237B8107F1080319461248FFF74D
:1015100015FE1BE07B68124A934217D14FF480639B
:101520003B8106237B810123BB8107F10803194618
:101530000C48FFF703FE4FF400633B8101237B81DE
:1015400007F1080319460748FFF7F8FD00BF1037F9
:10155000BD4680BD00380140000801400044004005
:1015600000480040000C014080B485B000AFF86036
:10157000B9601346FB71FB79002B06D100BFFB68F5
:101580001B6803F02003002BF9D00F4B1B685B7A1C
:10159000002B14D10C4B1B681B7A002B07D1FB6866
:1015A0005B689BB2DBB29AB2BB681A8007E0FB684B
:1015B0005B689BB203F07F039AB2BB681A8000BFDE
:1015C0001437BD4680BC70470C01002080B500AFC9
:1015D000024B1B681B69984700BF80BD0C010020AF
:1015E00080B500AF024B1B681B69984700BF80BDE8
:1015F0000C01002080B500AF024B1B681B699847A7
:1016000000BF80BD0C01002080B500AFFEF7B0FD2B
:10161000FEF7C8FDFEF7DEFDFEF768FEFEF72EFFC3
:101620000023184680BD000080B586B000AF78600A
:10163000144A154BD31A7B617B693B61134B1B68C2
:10164000002B02D1114B124A1A60104B1A687B68AA
:1016500013443A699A4207D200F066F803460C2216
:101660001A604FF0FF3309E0084B1B68FB60074B23
:101670001A687B681344054A1360FB6818461837DC
:10168000BD4680BD00280020000400001C01002091
:10169000680200200D488546AFF300800C480D49D4
:1016A0000D4A002302E0D458C4500433C4188C42BD
:1016B000F9D30A4A0A4C002301E013600432A24223
:1016C000FBD300F037F8FFF79FFFFEE7002800206C
:1016D000000000209C000020502100089C000020F9
:1016E00068020020FEE700000EB46FF0004100B574
:1016F0009CB01DAB029006900791049108480949DF
:1017000053F8042B0591006802A9019300F086F9B3
:101710000022029B1A701CB05DF804EB03B0704706
:10172000980000200802FFFF014B1868704700BFB7
:101730009800002070B500260C4D0D4C641BA410C1
:10174000A64209D100F07AFC00260A4D0A4C641B1F
:10175000A410A64205D170BD55F8043B9847013648
:10176000EEE755F8043B98470136F2E748210008B8
:1017700048210008482100084C21000870477047A4
:1017800038B50546002940D051F8043C0C1F002B09
:10179000B8BFE41800F0DCF81C4A136833B9636082
:1017A00014602846BDE8384000F0D8B8A34208D9F4
:1017B000206821188B4201BF19685B6809182160F5
:1017C000EDE71A465B680BB1A342FAD911685018CD
:1017D000A0420BD120680144501883421160E0D12F
:1017E00018685B68084410605360DAE702D90C237C
:1017F0002B60D6E7206821188B4201BF19685B680F
:101800000918216063605460CBE738BD6002002096
:1018100070B50E4E0C463168054611B900F0AAFBB2
:1018200030602146284600F0A5FB431C0AD0C41CAA
:1018300024F00304A04207D0211A284600F09AFBA6
:10184000013001D14FF0FF34204670BD640200200A
:101850002DE9F843CD1C25F0030508350C2D38BFC4
:101860000C25002D074601DBA94205D90C230026D3
:101870003B603046BDE8F883DFF8D08000F068F8C0
:10188000D8F800301C465CBB29463846FFF7C0FF3D
:10189000431C044655D1D8F800402646002E45D1B9
:1018A000002C48D023683146384604EB030900F089
:1018B00061FB81453FD1216838466D1A2946FFF703
:1018C000A7FF013037D023682B442360D8F80030BD
:1018D000002B38D05A68A2422BD100225A600FE068
:1018E0002268521B1FD40B2A17D96119A342256005
:1018F00018BF5960636808BFC8F8001062514B6098
:10190000384604F10B0600F029F826F00706231DDF
:10191000F21AAED09B1BA350ABE7A3426268DDD1A5
:10192000C8F80020ECE723466468ACE734467668E4
:10193000B4E71346CCE70C2338463B6000F00EF8C2
:1019400097E72560DCE75B60FFDE00BF60020020F8
:101950000148FFF713BF00BF5C0200200148FFF7FA
:101960000EBF00BF5C0200202DE9F0471F468E68C5
:101970008246BE420C4690460B682CD88A8912F4E7
:10198000906F26D06569096905EB4505A3EB010950
:1019900005EBD5757B1C4B446D109D4238BF1D4631
:1019A000530527D52946FFF753FF064660B34A463D
:1019B000216900F0FDFAA38923F4906343F08003CA
:1019C000A38126614E4426603E466561A5EB09056C
:1019D000A560BE4200D93E4632464146206800F02E
:1019E000AFFA0020A3689B1BA360236833442360E5
:1019F000BDE8F0872A4600F0E9FA06460028E0D163
:101A000050462169FFF7BCFE0C23CAF80030A389B9
:101A10004FF0FF3043F04003A381E9E72DE9F04F99
:101A200098468B8907461B060D4614469DB00ED579
:101A30000B6963B94021FFF70BFF2860286120B9CB
:101A40000C233B604FF0FF30D0E040236B6100235C
:101A5000099320238DF8293030234FF00109CDF868
:101A60000C80DFF8A0818DF82A3023469A4613F8BF
:101A7000012B0AB1252AF9D1BAEB040B0BD05B4636
:101A8000224629463846FFF76FFF013000F0A98053
:101A9000099A5A4409929AF80030002B00F0A1806C
:101AA00000234FF0FF32CDE905230AF1010A049328
:101AB00007938DF853301A935446052214F8011BEE
:101AC000504800F067FA049AD8B9D00644BF2023E2
:101AD0008DF85330110744BF2B238DF853309AF8FB
:101AE00000302A2B15D0544600204FF00A0C079ADC
:101AF000214611F8013B303B092B4DD9B0B107927B
:101B000014E0A0EB080309FA03F31343A24604937D
:101B1000D2E7039B191D1B680391002BBBBF5B42DF
:101B200042F0020207930793B8BF049223782E2B4A
:101B30000CD163782A2B34D1039B02341A1D1B6805
:101B40000392002BB8BF4FF0FF330593DFF8B8A026
:101B500003225046217800F01DFA38B14022049B40
:101B6000A0EB0A00824013430134049314F8011BD4
:101B7000062226488DF8281000F00CFA002838D0EC
:101B8000234B1BBB039B073323F00703083303934B
:101B9000099B3344099368E70C4601200CFB023291
:101BA000A6E700234FF00A0C19460134059320469E
:101BB00010F8012B303A092A03D9002BC6D0059121
:101BC000C4E7044601230CFB0121F0E703AB0093BB
:101BD0002A4638460F4B04A9AFF30080421C064644
:101BE000D6D1AB895B063FF52DAF09981DB0BDE896
:101BF000F08F03AB00932A463846064B04A900F049
:101C00007DF8EBE712210008182100081C210008CC
:101C100000000000691900082DE9F04716469946B2
:101C20008A680B6907469342B8BF1346336091F840
:101C300043200C46DDF820800AB10133336023686D
:101C4000990642BF336802333360256815F00605F4
:101C500006D104F1190AE36832689B1AAB422BDC07
:101C600094F84320131E226818BF0123920630D433
:101C70004946384604F14302C047013023D0236867
:101C8000226903F00603042B14BF002533684FF0CC
:101C9000000608BFE56804F11A0408BFED1A54F8FD
:101CA000123C08BF25EAE5759342C4BF9B1AED18A4
:101CB000B5421AD1002008E0012352464946384671
:101CC000C047013003D14FF0FF30BDE8F087013548
:101CD000C1E73020E11881F843005A1C94F8451000
:101CE0002244023382F84310C2E7012322464946C8
:101CF0003846C0470130E6D00136D9E72DE9FF4725
:101D00000F7E9146782F80460C469A460C9D01F135
:101D1000430207D8622F0AD8002F00F0D580582F31
:101D200000F0C18004F1420584F842703AE0A7F166
:101D30006303152BF6D801A151F823F0951D000877
:101D4000A91D0008251D0008251D0008251D0008E7
:101D5000251D0008A91D0008251D0008251D0008D7
:101D6000251D0008251D0008AF1E0008D51D000810
:101D7000691E0008251D0008251D0008D11E000849
:101D8000251D0008D51D0008251D0008251D00087B
:101D9000711E00082B681A1D1B682A6004F1420599
:101DA00084F842300123A0E020682B68070603F185
:101DB0000401296001D51E6803E04606FBD5B3F98E
:101DC0000060002E03DA2D23764284F843300A2384
:101DD000594812E02B682068191D2960050601D5B5
:101DE0001E6802E04106FBD51E886F2F0CBF08233A
:101DF0000A235148002184F843106568002DA8BFCC
:101E00002168A560A4BF21F0040121600EB9002D56
:101E10004BD01546B6FBF3F103FB1167C75D05F820
:101E2000017D3746BB420E46F4D9082B0BD12368FF
:101E3000DE0708D5236961689942DEBF302305F8C3
:101E4000013C05F1FF35521B22614B4621464046BD
:101E5000CDF800A003AAFFF7DFFE01304AD14FF012
:101E6000FF3004B0BDE8F087236843F0200323600F
:101E70007827324884F84570236829681F0651F88E
:101E8000046B02D45F0648BFB6B2DF0748BF43F019
:101E90002003296048BF23601EB9236823F0200374
:101EA00023601023A6E72448E4E71546BDE72B6826
:101EB0002668181D6169286035061B6801D5196000
:101EC00002E07006FBD51980002315462361BCE7AC
:101ED0002B6800211A1D2A601D686268284600F0E0
:101EE00059F808B1401B606063682361002384F8DF
:101EF0004330AAE72A46494640462369D047013085
:101F0000ADD023689B0713D4E068039B9842B8BF09
:101F10001846A6E70123324649464046D0470130DD
:101F20009DD00135E36803995B1AAB42F2DCEBE725
:101F3000002504F11906F5E72321000834210008E3
:101F4000884210B501EB020402D98442234607D827
:101F5000431EA14208D011F8012B03F8012FF8E726
:101F6000014602448A4200D110BD13F8014D02F827
:101F7000014DF7E738B50023054D044608462B60B0
:101F8000FFF752FB431C02D12B6803B1236038BD1D
:101F900058020020034610B5C9B2024493421846C5
:101FA00001D1002003E0047801338C42F6D110BD4A
:101FB0000A44914200F1FF3300D1704710B511F887
:101FC000014B914203F8014FF9D110BD2DE9F041C9
:101FD000804614460E4621B91146BDE8F041FFF790
:101FE00037BC2AB9FFF7CCFB25462846BDE8F0816F
:101FF00000F01BF88442074602D8B4EB500F12D809
:1020000021464046FFF724FC05460028EDD0BC429F
:102010002246314628BF3A46FFF7CAFF31464046BE
:10202000FFF7AEFBE1E73546DFE751F8043C181F48
:10203000002BBCBF0B58C01870470000F8B500BF9C
:10204000F8BC08BC9E467047F8B500BFF8BC08BC99
:042050009E467047F1
:1020540077656C636F6D6500656E74657220746876
:102064006520494400000000454E5445522049442F
:102074003A5B25645D000000616C6C6F77656420D9
:102084004944533A0000000049445B25645D3A200A
:1020940025630000456E74657220796F757220693E
:1020A400640000002020494420697320747275651F
:1020B4002020000066726565736C6F74733A256442
:1020C40000000000202049442069732077726F6E5D
:1020D400672020005061726B696E67206973206607
:1020E400756C6C0000000000010203040000000095
:1020F40000000000000000000000000001000200D9
:102104000300040005000600070008000900232D51
:10211400302B2000686C4C006566674546470030EC
:102124003132333435363738394142434445460039
:102134003031323334353637383961626364656639
:042144000000000097
:042148005501000835
:04214C003101000855
:1021500003000000000C014000080004000C0140D6
:102160000010000000070C000008014020004000A3
:10217000000801400010000000040C0001000000F5
:102180000200000008000000100000002000000015
:10219000400000008000000000010000000000007E
:1021A0002001002088010020F00100200000000034
:1021B000000000000000000000000000000000001F
:1021C000000000000000000000000000000000000F
:1021D00000000000000000000000000000000000FF
:0C21E00000000000000000004C00002087
:040000050800169544
:00000001FF
